:020000040000fa
:10000000f8ff0320850e0000f71a0000fb1a00001d
:10001000031b0000071b00000b1b0000000000007a
:10002000000000000000000000000000ad1800000b
:10003000ff1a0000000000007d11000049170000b9
:100040000f1b00000f1b00000f1b00000f1b000008
:100050000f1b00000f1b00000f1b00000f1b0000f8
:100060000f1b00000f1b00000f1b00000f1b0000e8
:100070000f1b00000f1b00000f1b00000f1b0000d8
:100080000f1b00000f1b00000f1b00000f1b0000c8
:100090000f1b00000f1b00000f1b00000f1b0000b8
:1000a0000f1b00000f1b00000f1b00000f1b0000a8
:1000b0000f1b00000f1b00000f1b00000f1b000098
:1000c0000f1b00000f1b00000f1b00000f1b000088
:1000d0000f1b00000f1b00000f1b00000f1b000078
:1000e0000f1b00000f1b00000000000000000000bc
:1000f000000000000f1b00000f1b00000f1b000082
:100100000f1b00000f1b00000f1b00000f1b000047
:100110000f1b00000f1b00000f1b00000f1b000037
:100120000f1b00000f1b00000f1b00000f1b000027
:100130000f1b00000f1b00000f1b00000f1b000017
:100140000f1b00000f1b00000f1b00000f1b000007
:100150000f1b00000f1b00000f1b00000f1b0000f7
:100160000f1b00000f1b00000f1b00000f1b0000e7
:100170000f1b00000f1b000000000000000000002b
:100180000f1b00000f1b00000f1b00000f1b0000c7
:10019000000000000f1b00000f1b00000f1b0000e1
:1001a0000f1b00000f1b00000f1b00000f1b0000a7
:1001b0000f1b00000f1b00000f1b00000f1b000097
:1001c0000f1b00000f1b00000f1b00000f1b000087
:1001d0000f1b00000f1b00000f1b00000f1b000077
:1001e0000f1b00000f1b00000f1b00000f1b000067
:1001f0000f1b00000f1b00000f1b00000f1b000057
:100200000f1b00000f1b00000f1b00000f1b000046
:100210000f1b00000f1b00000f1b00000f1b000036
:100220000f1b00000f1b00000f1b00000f1b000026
:100230000f1b00000f1b00000f1b00000f1b000016
:100240000f1b00000f1b00000f1b00000f1b000006
:100250000f1b00000f1b00000f1b00000f1b0000f6
:040260000f1b000070
:020000040000fa
:10026400f8b500bff8bc08bc9e467047f114000006
:10027400f8b500bff8bc08bc9e467047cd1400001a
:020000040000fa
:100284003ca100201c00000000000000d0a10020c0
:100294002c0000000000000058a100201400000001
:1002a40000000000fca10020040000000000000089
:1002b4006ca10020280000000000000000a2002023
:1002c400080000000000000094a1002028000000a5
:1002d4000000000088a0002064000000000000006e
:1002e40008a20020040000000000000010a3002069
:1002f4000400000001000000aaaaaaaa0ca200207f
:1003040008000000000000000000002000a0000021
:100314000000000014a200200400000000000000ff
:10032400eca00020500000000000000024a20020e7
:100334006c0000000100000030a200202ca200206c
:1003440030a20020000000002500000008a00020ca
:100354008000000000000000000000000000000019
:100364000000000000000000000000000000000089
:10037400000000001d1b0000000000000000000041
:100384000000000000000000171100000000000041
:100394000000000000000000000000000000000059
:1003a4000000000000a00020880000000000000001
:1003b400f0a2002020000000010000000100000065
:1003c4000300000000000000000000000000000026
:1003d4000000000000000000c8a10020c8a1002007
:1003e400080000000000000018a200200400000023
:1003f4000000000090a20020600000000100000046
:1004040001000000030000000000000000000000e4
:10041400000000000000000000000000391200008d
:10042400000000000000000000000000eb1a0000c3
:10043400db1a0000000000000000000000000000c3
:1004440000000000000000000000000000000000a8
:100454000000000000000000000000000000000098
:1004640014a30020040000000100000001000000ab
:100474001ca200200800000000000000bca1002015
:100484000c0000000000000000000000000000005c
:020000040000fa
:100494002de9f84307460d4698469600304600f08d
:1004a40077fd002800f099808146542000f070fd0b
:1004b4000446002800f08e805422002101f0b4fa92
:1004c400c4f830903246a521484601f0adfa043e06
:1004d400236b1e4426f0070685b105f1ff3c04f1a9
:1004e400330e05f10f0300bf1cf8015f0ef8015f26
:1004f4000db19c45f8d1002384f84330089b042bac
:1005040028bf04239946e3626364251d284601f04d
:10051400e7fa04f1180001f0e3fa2461c9f10503d4
:10052400a361646242463946304601f0f5f8206022
:10053400099b03b11c6001f0c7f93e4a13680133fb
:1005440013603d4b1b68002b4bd03c4b1b683bb9e5
:10055400394b1b68da6ae36a9a429cbf364b1c60cb
:10056400374a136801331360e36a36490868012285
:100574009a4002430a60344903eb830301eb83038b
:100584005b68a3609a68e26055609d60e36a03eb70
:10059400830201eb8202626103eb830351f823308f
:1005a4000133136001f02cfa244b1b68002b3dd05f
:1005b400214b1b68da6ae36a9a4239d24ff0e0238e
:1005c4004ff08052c3f8042dbff34f8fbff36f8fea
:1005d400012004e0484601f066f94ff0ff30bde821
:1005e400f883154b1c60134b1b68012bb8d1164eb6
:1005f40006f16407304601f0e3f91436be42f9d13e
:10060400124f384601f0dcf9114e304601f0d8f9aa
:10061400104801f0d5f9104801f0d2f90f4801f063
:10062400cff90f4b1f600f4b1e6099e70120d6e7ef
:100634000120d4e7f8a1002008a20020eca10020aa
:10064400dca10020f0a1002088a00020a8a10020a7
:1006540094a1002080a100206ca1002058a10020ba
:0806640004a2002000a2002006
:020000040000fa
:10066c002de9f84f5a4b1b68002b40f0aa80594bd0
:10067c001c6801341c6094b1574b1b68a34200f2f8
:10068c008d80564b1b681b68b3b10020534d8346bd
:10069c00534e4ff0010c5349dff854815be04f4a45
:1006ac001168514b186810601960504a1368013377
:1006bc00136001f083f8dfe70020474b4ff0ff3267
:1006cc001a606ce0444b1a6069e01a6adf69ba6020
:1006dc00df69576003f1180ad9f80420524504bfaa
:1006ec001a6ac9f80420c3f828b0d9f80020013ad6
:1006fc00c9f80020da6ad6f800a00cfa02f949ea27
:10070c000a09c6f8009002eb820201eb82025268e1
:10071c009a60d2f80890c3f80c90c9f804e0c2f8bb
:10072c0008e0da6a02eb820e01eb8e0ec3f814e0dd
:10073c0002eb820251f822200132cef80020d8f8c8
:10074c0000e0da6adef82c309a4288bf01202b6870
:10075c001b68002bb1d02b68db68db685a689442ad
:10076c00b0d3d3f81490da689f68ba609f6857606a
:10077c0003f1040ed9f80420724504bfda68c9f8f5
:10078c000420c3f814b0d9f80020013ac9f80020ad
:10079c00d3f82890b9f1000f97d1abe70020144b98
:1007ac001b68db6a03eb83030e4a52f82330022bdf
:1007bc0028bf01200f4b1b68002b18bf0120bde880
:1007cc00f88f0d4a1368013313600020f7e700bf60
:1007dc00d0a10020f4a10020d8a1002004a2002068
:1007ec00f0a1002088a0002000a20020e0a10020a1
:0c07fc0008a20020e4a10020e8a10020d9
:020000040000fa
:100808002de9f04701f05ef8524b1a68013a1a6078
:100818001b68002b40f095804f4b1b68002b00f0a5
:1008280096804e4b1b68002b69d04c4d00244c48d9
:1008380001264c49dff838a1dff830c1eb68db68e6
:10084800d3f828e01a6adf69ba60df69576003f1f4
:100858001808def80420424504bf1a6acef80420be
:100868009c62def80020013acef80020d3f814e0ac
:10087800da689f68ba609f68576003f10408def879
:100888000420424504bfda68cef804205c61def833
:100898000020013acef80020da6ad0f8009006fa73
:1008a80002fe4eea090ec0f800e002eb820201ebfc
:1008b800820252689a60d2f808e0c3f80ce0cef8d9
:1008c8000480c2f80880da6a02eb820e01eb8e0e11
:1008d800c3f814e002eb820251f822200132cef86c
:1008e8000020daf800e0da6adef82c309a4288bf95
:1008f800ccf800602b68002ba0d100f061ff1a4be8
:100908001c686cb1194e012501e0013c05d0fff7c8
:10091800a9fe0028f9d03560f7e7134b00221a60ca
:10092800124b1c6874b1124b1b684ff0e0234ff058
:100938008052c3f8042dbff34f8fbff36f8f01248c
:1009480000e0002401f05af82046bde8f0870024b2
:10095800f8e700bfd0a10020f8a1002080a1002066
:10096800f0a1002088a00020e8a10020e4a1002038
:0409780008a20020b1
:020000040000fa
:10097c0030b5594b4ff000621a60012283f84020c9
:10098c0083f8412083f8442083f8452083f84620df
:10099c0083f8472083f8482083f8492083f84a20bd
:1009ac0083f84b2083f84c2083f84d2083f850209b
:1009bc0083f8512083f8522083f8532083f8542075
:1009cc0083f8552083f8562083f8572083f8582055
:1009dc0083f85920032483f85b40332183f83010cb
:1009ec0083f8321083f83310112083f8340083f825
:1009fc003500552083f8360083f8380083f8390029
:100a0c004ff0880e83f83ae083f83b10772183f897
:100a1c003c10002183f83d104ff46075c3f88050f2
:100a2c0083f8c1204ff0400c83f8c7c083f8c8c0ce
:100a3c0083f8c9c083f8cc2083f8cd2083f8ce206e
:100a4c0083f8d02083f8d22083f8d32083f8d420e5
:100a5c0083f8d52083f8de2083f8df2083f8b010ec
:100a6c0083f8b31083f8b410222583f8b65083f8ba
:100a7c00b710082583f8b85083f8b9e083f8bae0ca
:100a8c0083f8bf00154dc3f8005183f8402183f85b
:100a9c00411183f84a2183f84b1183f84c2183f8d8
:100aac004d2183f84e2183f84f2183f8582183f888
:100abc005bc183f85c4183f83011052283f8352142
:100acc0083f8360183f8370183f83c1183f83d1124
:100adc0083f83e1130bd00bf0080004102080018b1
:020000040000fa
:100aec00334b00221a7403f50063324a9a621a4699
:100afc00536813f0100ffbd12f4b4222c3f8842004
:100b0c001a4600bfd2f8843013f0400ffad02b4baa
:100b1c0000229a6377225a631a46d36b13f0040fa0
:100b2c00fbd1264b022283f830201a46d36b13f0ec
:100b3c00020ffbd1214a136c03f00303032bfad1f0
:100b4c001f4b01225a711a46d37813f0010ffbd0b8
:100b5c00194b1c4a1a621a46536813f0040ffbd146
:100b6c00154b194a5a621a46536813f0080ffbd1f9
:100b7c00114b4122c3f890201a4600bfd2f8903096
:100b8c0013f0400ffad00c4b4122c3f80c211a463b
:100b9c00d2f80c3113f0400ffad0094b6ff07f42b2
:100bac001a6140f2ff725a6102221a62704700bf4a
:100bbc000014004006013000001c004000100040f2
:0c0bcc00000800400701010007010200c2
:020000040000fa
:100bd8002de9f04104460d462c4b1e682c4b1f682e
:100be8002c4bd3f800802c4b1868043000f038feea
:100bf80048b9294b1a6829490b68d06a01228240f2
:100c080023ea02030b60b4f1ff3f0dd03444224bba
:100c18001b685c60a6421cd91f4b1968043140460a
:100c280000f019fdbde8f08105b31d4a51681a4b63
:100c38001868816018688c68c4601868043060603f
:100c48001868043088601b685a61136801331360a0
:100c5800e8e7114b19680431384600f0fcfc114be9
:100c68001b68a342ded90f4b1c60dbe7731e0a4ae0
:100c7800126853609e42cfd8074b19680431384632
:100c880000f0e9fc074b1b68cce700bff4a100208b
:100c980004a2002000a2002008a20020f0a1002049
:080ca80058a10020d8a1002092
:020000040000fa
:100cb00008b5284b1b681bb1274b01221a6008bde1
:100cc000254b00221a60254b1a68116b1a681b68a5
:100cd00012681b6b9a4203d90b68b3f1a53f26d06b
:100ce0001e4b19681868343100f0b4fe1c4b1b68a9
:100cf000b3fa83f3dbb2c3f11f031a4a03eb830198
:100d000002eb810148684068486003eb830102eb15
:100d100081020832904217d003eb8303114a02eba1
:100d200083035b68da680d4b1a601b68c7e74b6882
:100d3000b3f1a53fd4d18b68b3f1a53fd0d1cb6837
:100d4000b3f1a53fccd1d1e7064a02eb8102d168cd
:100d50005160e1e7d0a10020e4a1002008a200201a
:080d6000f0a1002088a0002092
:020000040000fa
:100d680000b587b0002302930393049305931949b0
:100d780002aa0878107018b1013101320133f8e77e
:100d880018330deb0302002302f8103c124a0192bb
:100d98000093802202a91148fff778fb012804d0ac
:100da8000f4b1b6807b05df804fb4ff0200383f37b
:100db8001188bff36f8fbff34f8f0a4b4ff0ff328d
:100dc8001a60094b01221a60084b00221a6000f0d1
:100dd800e1fae5e7d41a0000d4a10020f1170000d9
:100de800141b0000d8a10020eca10020f4a10020d1
:020000040000fa
:100df8002de9ff41836947690093ff1acde9017125
:100e080004461646039217444ff002086d462068c0
:100e18004246294600f0bffcb84209d1d4e9023263
:100e2800c4e905331a44a262304604b0bde8f08133
:100e380000280dda6268002342f01002b8f1020fb0
:100e4800c4e90533a362626015d06b68f61aebe754
:100e58006b68984288bf0835a7eb000788bfc01a9f
:100e68002b6803442b606b68a3eb000388bf08f171
:0a0e7800ff386b60cbe71e46d6e79b
:020000040000fa
:020e82007047b7
:020000040000fa
:100e840008b5194b9847194b9847eff3108172b680
:100e9400174ad2f8883043f47003c2f88830bff39d
:100ea4004f8fbff36f8f01b962b6124a936823f074
:100eb40001039360d36813f0010ffbd10d4b24227f
:100ec4005a6001229a6000f095fb0b4b23f07f03dc
:100ed400074a9360094b9847094b9847094b984731
:100ee40000f004fc00befee77b1100007b11000053
:100ef40000ed00e00060004100000000dd11000092
:080f04007b1100007b110000cd
:020000040000fa
:100f0c00f8b500241f4d4ff4007702260ae04ff08d
:100f1c000063c5f81431c5f81c6101244ff4fa7054
:100f2c0000f07efb042cf9d801a353f824f000bf89
:100f3c001b0f0000510f0000610f0000730f000029
:100f4c00810f0000c5f81c614ff48073c5f89c300c
:100f5c003446e3e74ff48073c5f89c308023c5f822
:100f6c009c300324dae78023c5f89c30c5f89c70cc
:100f7c000424d3e7c5f89c704ff00063c5f81c310e
:080f8c000024cbe700800041c6
:020000040000fa
:100f940038b5044610f0070305d0a3f109028242d4
:100fa40027d30834e41a00f077fd184b1b6873b19b
:100fb4002cb3174b1b68e2439a420ed31c4449f6e8
:100fc400f77294420cd9fff71dfc1ae000240f4a73
:100fd400104b23f007031360eae7fff713fc10e05c
:100fe4000a4a15681d440a4b1c60fff70bfc5db9e7
:100ff40007e000f051fd054b1b68002be6d0fff71e
:1010040001fc00f02efd0025284638bd0ca200206e
:0810140010a2002007000020db
:020000040000fa
:10101c00dff87cc0f0b5dcf800400346002c35d07e
:10102c000022214615461046d1f800e00e699e4577
:10103c0009d12ab1166101f11000f0bd3146f3e778
:10104c00ccf80060f7e705d9e8b10768be453cbfae
:10105c00154608460a46002ef0d10028edd0014670
:10106c00066951f8102bd21a102a05d903600b44cb
:10107c00103a1e611a601e4684420cbfccf8006008
:10108c002e610846d9e715460846e3e72046d4e723
:04109c001ca2002072
:020000040000fa
:1010a000f8b5846a05460f46164654b1ab6a6a69bc
:1010b0009b1ab3420bd2324639462846fff79cfeb4
:1010c000f8bd00f067fc0028f0d02046f8e7002ebd
:1010d000f1d095f93430002b1bdbdab233461c46d5
:1010e000013bf95c914212d1224639462846fff76e
:1010f00083fe8442e4d82744341b6869224639467b
:1011000000f03cfc6b6923446b613046d8e7002b50
:06111000e5d13446f1e7d1
:020000040000fa
:101116007fb5c36800911646002b18bf013a0192ad
:1011260082680446cde9022300680d46022269461c
:1011360000f01dfb031e09dc626803f0180181f054
:1011460008010a436260184604b070bd01999942cd
:101156001846f9d2a268e2635b1a13442364e36873
:101166000bb93046f0e7531ce3633544137805f8b2
:04117600013cf6e75b
:020000040000fa
:02117a007047bc
:020000040000fa
:10117c00eff30980bff36f8f144b1a681ef0100f3a
:10118c0008bf20ed108a20e9f04f10602de909000e
:10119c004ff0200080f31188bff34f8fbff36f8f98
:1011ac00fff780fd4ff0000080f3118809bc19682f
:1011bc000868b0e8f04f1ef0100f08bfb0ec108ab2
:1011cc0080f30988bff36f8f7047000008a20020de
:020000040000fa
:1011dc000e4a38b5002313600d4a0e4c13600e4aac
:1011ec000e4d13600e4a13600e4a13600e4a536282
:1011fc0013610123936000f053fc00f060fcac42df
:10120c0000d338bd54f8043b9847f8e718a20020e7
:10121c00f8a0002070020000f4a00020740200006e
:0c122c00eca00020f0a00020fca000209e
:020000040000fa
:1012380038b50d46044608b9002038bd43689b06fa
:1012480007d5d0e905239a4216d80023c4e9053307
:10125800a362d4e90f13994204d220680122c91a63
:1012680000f05afc0023c4e90f33002de4d02068b5
:10127800bde8384000f038bc0022c36a11469847e0
:0c1288006369002be1d14ff0ff30d6e786
:020000040000fa
:1012940037b5144d2b68044673b100f025fb01905b
:1012a40001a800f098fb0f30019920f00f0000f026
:1012b4007bfb58b100232b60012c38bf01240f3471
:1012c40034f00f0405d1084b0c221a60002003b03f
:1012d40030bd2046fff7a0fe0028f8d040f8044cab
:0c12e400f5e700bf14a3002020a20020aa
:020000040000fa
:1012f000022a70b51d4604464368164606d10022f0
:1013000023f02003c2604360002070bd9b06fbd425
:1013100039b9002d08bf802505f10800fff7baff95
:1013200001466368012e43f02003636014bf4ff051
:10133000ff330a2384f83430024be362c4e9021518
:08134000e2e700bfa11000006c
:020000040000fa
:1013480018b338b50c46054600f09ef9dcb100200c
:101358000f4a137e13f0040ffbd0538b13f0070fc3
:101368000cd1536803f00703012b936a14bf2b5465
:1013780025f8103001308442ebd12046844214bf56
:101388000020012038bd2046f8e70020704700bf44
:04139800000400430a
:020000040000fa
:10139c0038b54ff0e024d4f8203d43f47f03c4f873
:1013ac00203dd4f8203d43f07f43c4f8203d002578
:1013bc00c4f81c5d00f0d0fa084b1d6000f012fb65
:1013cc00d4f8343f43f04043c4f8343f00f01efae5
:1013dc00fff768fc00f053fa284638bd10a3002034
:020000040000fa
:1013ec00f8b50f4b1b68d3b10e4f0f4e0c4d00f0e0
:1013fc0067fafb68dc68201d00f030fa3368013bab
:10140c0033602b68013b2b6000f0f6fa206b00f088
:10141c0046fa204600f043fa2b68002be7d1f8bdc2
:0c142c00fca100206ca10020f8a1002011
:020000040000fa
:1014380038b50f4d2b68044663b1002c12da0d4afb
:101448002b6812689b1a6242934208db286804449e
:101458002c6006e000f030f92b68002bedd14ff03e
:10146800ff3038bd044b2a681b689b1aa342ece77f
:0c147800bca10020c4a10020c0a10020e5
:020000040000fa
:10148400104bda6822f4e0621204120c42f0bf62dc
:1014940042f40032da60bff35f8f62b6e02283f871
:1014a40023205a6a42f480225a625a6942f0100296
:1014b4005a615a6a42f400325a625a6a42f48032d9
:0814c4005a62704700ed00e0e0
:020000040000fa
:1014cc0010b5054c237833b9044b13b10448aff372
:1014dc0000800123237010bd3ca1002000000000ff
:1014ec000000000008b5034b1bb103490348aff3e0
:1014fc00008008bd0000000040a10020000000009a
:020000040000fa
:10150c0008b500f0bdfa0c4b1b680021186800f000
:10151c00cffa0a4b1b680021186800f0c9fafff7d4
:10152c0027fafff7ddfafff7a6fc00f045f800f00c
:10153c0027f8fff7a1ff08bd28a200200ca300206c
:020000040000fa
:10154c000b460146a8b1b3b100eb030c0b4a137e5a
:10155c0013f0010ffbd0536803f00703012b14bfea
:10156c0003780b889362013002316045efd1012082
:10157c007047002070470120704700bf00040043f3
:020000040000fa
:10158c000b4a137843f001031370536813f0010fe7
:10159c00fbd1074b2222da61064a1a621a7842f012
:1015ac0002021a701a46536813f0020ffbd17047ef
:0815bc00002800400230030288
:020000040000fa
:1015c4000a4b0b4a1a604ff622029a814ff44032ba
:1015d4005a601a46d369002bfcd1044a136843f0bd
:1015e40002031360d369002bfcd17047000400434d
:0415f400040110409e
:020000040000fa
:1015f80038b50a480a4d016821b9436813b900f0a3
:1016080040fa38bd0389426855f8233000f10c04cc
:101618002046984704eb8000ede700bf84020000f5
:04162800181a00008c
:020000040000fa
:10162c0010b550b94ff0e0234ff08052c3f8042da1
:10163c00bff34f8fbff36f8f10bd044600f028fa35
:10164c0000212046fff7c2fafff7d8f80028f3d1a3
:02165c00e8e7bd
:020000040000fa
:10165e0030b40d68b5f1ff3f11d000f108031c4600
:10166e005b681a68aa42fad963684b6099608c600d
:10167e006160086103680133036030bc7047046920
:02168e00f2e781
:020000040000fa
:101690000a4b5b8b13f0070f0ed0084b80221a7693
:1016a00007225a831b7e13f0040f05d0034b9a6a5e
:1016b0001a7e12f0040ffad1704700bf00040043f5
:020000040000fa
:1016c000064b1a680ab9064a1a60064a116809b92f
:1016d000054911601a68054b1a607047c4a10020c3
:1016e00020a30020c0a1002020a50020bca1002034
:020000040000fa
:1016f00000b583b00020fff709ff0023019301220a
:1017000000924ff47a7203490348fef7c3fefff7d5
:0c1710002bfbfee7cc1a00000d0f0000c0
:020000040000fa
:10171c004ff0807340f8043c21f0010140f8081ca4
:10172c00054b40f80c3c40f8202c6ff0020340f8bd
:0c173c00243c4438704700bf8b180000ac
:020000040000fa
:1017480008b54ff0200383f31188bff36f8fbff301
:101758004f8ffef787ff28b14ff0e0234ff08052fc
:0c176800c3f8042d002383f3118808bd92
:020000040000fa
:101774002de9f0410025804616460c462f46b74217
:1017840002db2846bde8f081626854f8081b404635
:0a17940000f0baf801370544f1e750
:020000040000fa
:10179e002de9f0410025804616460c462f46b742ed
:1017ae0002db2846bde8f081626854f8081b40460b
:0a17be0000f0c3f801370544f1e71d
:020000040000fa
:1017c800074b1b681b6823b9064b4ff0ff321a60a2
:1017d8007047034b1b68db681a68024b1a60704736
:0817e80004a20020d8a100209a
:020000040000fa
:1017f00008b5084cfff7fafd2368012bfad94ff022
:10180000e0234ff08052c3f8042dbff34f8fbff396
:081810006f8fefe788a00020b4
:020000040000fa
:1018180008480068006880f308884ff0000080f3eb
:10182800148862b661b6bff34f8fbff36f8f00dfc6
:0818380000bf000008ed00e014
:020000040000fa
:1018400090f948305a1e1343426880f8483012f02d
:10185000040317bf42f01002c0e90f3342604ff09b
:08186000ff3008bf1846704775
:020000040000fa
:101868000369416882688a60416851605a688242a7
:1018780004bf82685a600022026118680138186043
:021888007047a7
:020000040000fa
:10188a0082b0002301934ff0200383f31188bff342
:10189a006f8fbff34f8f019b002bfcd002b07047b4
:020000040000fa
:0218aa00704785
:020000040000fa
:1018ac00064b19680868b0e8f04f80f30988bff35d
:1018bc006f8f4ff0000080f31188704708a2002052
:020000040000fa
:1018cc004ff0200383f31188bff36f8fbff34f8f5b
:1018dc00024a136801331360704700bf10a3002045
:020000040000fa
:1018ec0010b5054c23680bb9fff7e4fe034b1868e1
:1018fc002368c01a10bd00bfbca10020c0a10020ed
:020000040000fa
:10190c0058b938b50c463ab1012529462046fff79f
:0e191c0015fd0028f9d0012038bd00207047cd
:020000040000fa
:10192a0010b50023934206d113f0030018bf01201b
:0e193a0000eb930010bdc45ccc540133f2e707
:020000040000fa
:1019480038b50d461446012801d0204638bd214639
:0c1958002846fff7f7fd0028f9d0f6e75d
:020000040000fa
:101964004ff0e02300221a619a61024a5a61072269
:081974001a617047bfd40100a5
:020000040000fa
:10197c004ab1431e84460a4411f8010b03f8010fc7
:08198c009142f9d16046704759
:020000040000fa
:1019940010b50446fff752ff28b9a368e268c4e90a
:0819a40005331344a36210bdda
:020000040000fa
:1019ac00044a136823b91060036101600120704779
:0819bc00002070471ca200206e
:020000040000fa
:1019c40000f1080343604ff0ff328260c36003619b
:0619d400002303607047d0
:020000040000fa
:1019da000068002808b501da002008bdfff727fdd6
:0619ea00431cfad1f8e7ee
:020000040000fa
:1019f000dff80c00016841f47001016070470000dd
:041a000088ed00e08d
:020000040000fa
:101a0400034a1368013b13600bb983f311887047d1
:041a140010a30020fb
:020000040000fa
:101a1800791a00002b190000191b0000191b00007f
:041a2800191b000086
:020000040000fa
:101a2c0032b1c9b20244034603f8011b9a42fbd1fe
:041a3c00704700bf30
:020000040000fa
:101a400008b500f04bf8024b1860586008bd00bfa5
:041a5000c8a1002009
:020000040000fa
:101a54004ff0200383f31188bff36f8fbff34f8fd1
:021a6400fee79b
:020000040000fa
:101a66004ff0200383f31188bff36f8fbff34f8fbf
:021a7600fee789
:020000040000fa
:101a78000a440023914201d10020704701f8013b3c
:021a8800f8e77d
:020000040000fa
:021a8a007047a3
:020000040000fa
:101a8c00024b40f204521a80704700bf00400041e4
:020000040000fa
:101a9c00024a136801331360704700bfd0a10020c5
:020000040000fa
:101aac0008b5fff7c7ff00f02ef800f02cf808bdc2
:020000040000fa
:0e1abc00b1fa81f2520980235200fff713bce9
:020000040000fa
:021aca00704763
:020000040000fa
:0d1acc005461736b2031000049444c45000b
:020000040000fa
:021ada00704753
:020000040000fa
:081adc000048704790a20020b1
:020000040000fa
:061ae400002303617047be
:020000040000fa
:061aea000068fff72cbfad
:020000040000fa
:061af0004ff0ff307047cb
:020000040000fa
:041af60000befee749
:020000040000fa
:041afa0000befee745
:020000040000fa
:041afe0000befee741
:020000040000fa
:041b020000befee73c
:020000040000fa
:041b060000befee738
:020000040000fa
:041b0a0000befee734
:020000040000fa
:041b0e0000befee730
:020000040000fa
:021b120070471a
:020000040000fa
:041b140004000000c9
:020000040000fa
:041b180000207047f2
:020000040000fa
:041b1c0000207047ee
:020000040000fa
:041b200000207047ea
:020000040000fa
:0200000400807a
:044000003912003c35
:020000040000fa
:0200000400807a
:044004008000a82a66
:020000040000fa
:0200000400807a
:04400800ffffffffb8
:00000001FF
