:020000040000fa
:10000000f8ff0320250600001f0900002309000057
:100010002b0900002f090000330900000000000038
:10002000000000000000000000000000790800004f
:100030002709000000000000ad06000025080000b0
:1000400037090000370900003709000037090000b0
:1000500037090000370900003709000037090000a0
:100060003709000037090000370900003709000090
:100070003709000037090000370900003709000080
:100080003709000037090000370900003709000070
:100090003709000037090000370900003709000060
:1000a0003709000037090000370900003709000050
:1000b0003709000037090000370900003709000040
:1000c0003709000037090000370900003709000030
:1000d0003709000037090000370900003709000020
:1000e0003709000037090000000000000000000090
:1000f0000000000037090000370900003709000040
:1001000037090000370900003709000037090000ef
:1001100037090000370900003709000037090000df
:1001200037090000370900003709000037090000cf
:1001300037090000370900003709000037090000bf
:1001400037090000370900003709000037090000af
:10015000370900003709000037090000370900009f
:10016000370900003709000037090000370900008f
:1001700037090000370900000000000000000000ff
:10018000370900003709000037090000370900006f
:10019000000000003709000037090000370900009f
:1001a000370900003709000037090000370900004f
:1001b000370900003709000037090000370900003f
:1001c000370900003709000037090000370900002f
:1001d000370900003709000037090000370900001f
:1001e000370900003709000037090000370900000f
:1001f00037090000370900003709000037090000ff
:1002000037090000370900003709000037090000ee
:1002100037090000370900003709000037090000de
:1002200037090000370900003709000037090000ce
:1002300037090000370900003709000037090000be
:1002400037090000370900003709000037090000ae
:10025000370900003709000037090000370900009e
:04026000370900005a
:020000040000fa
:10026400f8b500bff8bc08bc9e467047d50700002f
:10027400f8b500bff8bc08bc9e467047b107000043
:020000040000fa
:100284002de9f84f5a4b1b68002b40f0aa80594bbc
:100294001c6801341c6094b1574b1b68a34200f2e4
:1002a4008d80564b1b681b68b3b10020534d8346a9
:1002b400534e4ff0010c5349dff854815be04f4a31
:1002c4001168514b186810601960504a1368013363
:1002d400136000f0bbfadfe70020474b4ff0ff321a
:1002e4001a606ce0444b1a6069e01a6adf69ba600c
:1002f400df69576003f1180ad9f80420524504bf96
:100304001a6ac9f80420c3f828b0d9f80020013ac1
:10031400c9f80020da6ad6f800a00cfa02f949ea12
:100324000a09c6f8009002eb820201eb82025268cd
:100334009a60d2f80890c3f80c90c9f804e0c2f8a7
:1003440008e0da6a02eb820e01eb8e0ec3f814e0c9
:1003540002eb820251f822200132cef80020d8f8b4
:1003640000e0da6adef82c309a4288bf01202b685c
:100374001b68002bb1d02b68db68db685a68944299
:10038400b0d3d3f81490da689f68ba609f68576056
:1003940003f1040ed9f80420724504bfda68c9f8e1
:1003a4000420c3f814b0d9f80020013ac9f8002099
:1003b400d3f82890b9f1000f97d1abe70020144b84
:1003c4001b68db6a03eb83030e4a52f82330022bcb
:1003d40028bf01200f4b1b68002b18bf0120bde86c
:1003e400f88f0d4a1368013313600020f7e700bf4c
:1003f400d0000020e8000020d4000020f0000020fd
:10040400e400002000000020ec000020d8000020c0
:0c041400f4000020dc000020e0000020cc
:020000040000fa
:10042000274b00221a7403f50063264a9a621a4683
:10043000536813f0100ffbd1234b4222c3f88420e2
:100440001a4600bfd2f8843013f0400ffad01f4b89
:1004500000229a6377225a631a46d36b13f0040f73
:10046000fbd11a4b022283f830201a46d36b13f0cb
:10047000020ffbd1154a136c03f00303032bfad1cf
:10048000134b01225a711a46d37813f0010ffbd097
:100490000d4b104a1a621a46536813f0040ffbd131
:1004a000094b0d4a5a621a46536813f0080ffbd1e4
:1004b000074b6ff07f421a6140f2ff725a6170473a
:1004c0000014004006013000001c004000100040f5
:0c04d000000800400701010007010200c5
:020000040000fa
:1004dc0008b5284b1b681bb1274b01221a6008bdbd
:1004ec00254b00221a60254b1a68116b1a681b6881
:1004fc0012681b6b9a4203d90b68b3f1a53f26d047
:10050c001e4b19681868343100f0e4f91c4b1b6859
:10051c00b3fa83f3dbb2c3f11f031a4a03eb830173
:10052c0002eb810148684068486003eb830102ebf1
:10053c0081020832904217d003eb8303114a02eb7d
:10054c0083035b68da680d4b1a601b68c7e74b685e
:10055c00b3f1a53fd4d18b68b3f1a53fd0d1cb6813
:10056c00b3f1a53fccd1d1e7064a02eb8102d168a9
:10057c005160e1e7d0000020dc000020f4000020f6
:08058c00e40000200000002043
:020000040000fa
:10059400b40000201c00000000000000d000002077
:1005a4000400000000000000d4000020040000004b
:1005b40000000000d80000200c0000000000000033
:1005c400e40000200800000000000000ec0000200f
:1005d400080000000000000000000020640000008b
:1005e40000000000f40000200400000000000000ef
:1005f400f800002004000000000000006400002057
:100604005000000000000000fc0000200400000076
:10061400000000000000000000000000666666663e
:020000040000fa
:1006240008b5194b9847194b9847eff3108172b6e8
:10063400174ad2f8883043f47003c2f88830bff305
:100644004f8fbff36f8f01b962b6124a936823f0dc
:1006540001039360d36813f0010ffbd10d4b2422e7
:100664005a6001229a6000f0c1f80b4b23f07f031b
:10067400074a9360094b9847094b9847094b984799
:1006840000f046f900befee73f0900003f09000004
:1006940000ed00e000600041000000000d070000d4
:0806a4003f0900003f090000be
:020000040000fa
:1006ac00eff30980bff36f8f144b1a681ef0100f15
:1006bc0008bf20ed108a20e9f04f10602de90900e9
:1006cc004ff0200080f31188bff34f8fbff36f8f73
:1006dc00fff7fefe4ff0000080f3118809bc19688b
:1006ec000868b0e8f04f1ef0100f08bfb0ec108a8d
:1006fc0080f30988bff36f8f70470000f40000206f
:020000040000fa
:10070c000e4a38b5002313600d4a0e4c13600e4a86
:10071c000e4d13600e4a13600e4a13600e4a53625c
:10072c0013610123936000f006f900f004f9ac4268
:10073c0000d338bd54f8043b9847f8e7fc00002080
:10074c0070000020700200006c0000207402000099
:0c075c00640000206800002074000020f1
:020000040000fa
:10076800104bda6822f4e0621204120c42f0bf6205
:1007780042f40032da60bff35f8f62b6e02283f89a
:1007880023205a6a42f480225a625a6942f01002bf
:100798005a615a6a42f400325a625a6a42f4803202
:0807a8005a62704700ed00e009
:020000040000fa
:1007b00010b5054c237833b9044b13b10448aff39b
:1007c00000800123237010bdb40000200000000051
:1007d0000000000008b5034b1bb103490348aff309
:1007e000008008bd00000000b800002000000000ec
:020000040000fa
:1007f00038b50a480a4d016821b9436813b900f0b9
:100800009ff838bd0389426855f8233000f10c0485
:100810002046984704eb8000ede700bf94050000f8
:04082000cc08000000
:020000040000fa
:1008240008b54ff0200383f31188bff36f8fbff334
:100834004f8ffff725fd28b14ff0e0234ff0805292
:0c084400c3f8042d002383f3118808bdc5
:020000040000fa
:10085000074b1b681b6823b9064b4ff0ff321a6029
:100860007047034b1b68db681a68024b1a607047bd
:08087000f0000020d40000207c
:020000040000fa
:10087800064b19680868b0e8f04f80f30988bff3a1
:100888006f8f4ff0000080f311887047f40000204c
:020000040000fa
:1008980010b50023934206d113f0030018bf0120be
:0e08a80000eb930010bdc45ccc540133f2e7aa
:020000040000fa
:1008b60008b500f024f8fff7b0fd00f003f8fff7e5
:0408c60050ff08bd1a
:020000040000fa
:0208ca00704775
:020000040000fa
:1008cc00f3080000990800003b0900003b090000f8
:0408dc003b090000d4
:020000040000fa
:1008e0004ff0200383f31188bff36f8fbff34f8f57
:0208f000fee721
:020000040000fa
:1008f2000a440023914201d10020704701f8013bd4
:02090200f8e714
:020000040000fa
:10090400024b40f204521a80704700bf004000417d
:020000040000fa
:0a09140008b50020fff7cdfffee755
:020000040000fa
:04091e0000befee732
:020000040000fa
:0409220000befee72e
:020000040000fa
:0409260000befee72a
:020000040000fa
:04092a0000befee726
:020000040000fa
:04092e0000befee722
:020000040000fa
:0409320000befee71e
:020000040000fa
:0409360000befee71a
:020000040000fa
:04093a0000207047e2
:020000040000fa
:02093e00704700
:020000040000fa
:020940007047fe
:020000040000fa
:020942007047fc
:020000040000fa
:0200000400807a
:044000003912003c35
:020000040000fa
:0200000400807a
:044004008000a82a66
:020000040000fa
:0200000400807a
:04400800ffffffffb8
:00000001FF
